{
  "contractName": "Voting",
  "abi": [
    {
      "constant": true,
      "inputs": [
        {
          "name": "",
          "type": "bytes32"
        }
      ],
      "name": "candidates",
      "outputs": [
        {
          "name": "",
          "type": "uint256"
        }
      ],
      "payable": false,
      "stateMutability": "view",
      "type": "function"
    },
    {
      "constant": true,
      "inputs": [
        {
          "name": "",
          "type": "uint256"
        }
      ],
      "name": "candidatesIndex",
      "outputs": [
        {
          "name": "",
          "type": "bytes32"
        }
      ],
      "payable": false,
      "stateMutability": "view",
      "type": "function"
    },
    {
      "constant": true,
      "inputs": [],
      "name": "totalTokens",
      "outputs": [
        {
          "name": "",
          "type": "uint256"
        }
      ],
      "payable": false,
      "stateMutability": "view",
      "type": "function"
    },
    {
      "constant": true,
      "inputs": [],
      "name": "tokenPrice",
      "outputs": [
        {
          "name": "",
          "type": "uint256"
        }
      ],
      "payable": false,
      "stateMutability": "view",
      "type": "function"
    },
    {
      "constant": true,
      "inputs": [
        {
          "name": "",
          "type": "address"
        }
      ],
      "name": "voters",
      "outputs": [
        {
          "name": "voterAddress",
          "type": "address"
        },
        {
          "name": "tokens",
          "type": "uint256"
        },
        {
          "name": "voted",
          "type": "bool"
        },
        {
          "name": "vote",
          "type": "bytes32"
        },
        {
          "name": "delegate",
          "type": "address"
        }
      ],
      "payable": false,
      "stateMutability": "view",
      "type": "function"
    },
    {
      "inputs": [
        {
          "name": "tokens",
          "type": "uint256"
        },
        {
          "name": "_tokenPrice",
          "type": "uint256"
        },
        {
          "name": "_candidates",
          "type": "bytes32[]"
        }
      ],
      "payable": false,
      "stateMutability": "nonpayable",
      "type": "constructor"
    },
    {
      "anonymous": false,
      "inputs": [
        {
          "indexed": false,
          "name": "total",
          "type": "uint256"
        },
        {
          "indexed": false,
          "name": "available",
          "type": "uint256"
        },
        {
          "indexed": false,
          "name": "price",
          "type": "uint256"
        }
      ],
      "name": "TokensInfo",
      "type": "event"
    },
    {
      "constant": true,
      "inputs": [
        {
          "name": "candidate",
          "type": "bytes32"
        }
      ],
      "name": "totalVotesFor",
      "outputs": [
        {
          "name": "",
          "type": "uint256"
        }
      ],
      "payable": false,
      "stateMutability": "view",
      "type": "function"
    },
    {
      "constant": false,
      "inputs": [
        {
          "name": "to",
          "type": "address"
        },
        {
          "name": "tokens",
          "type": "uint256"
        }
      ],
      "name": "delegate",
      "outputs": [],
      "payable": false,
      "stateMutability": "nonpayable",
      "type": "function"
    },
    {
      "constant": false,
      "inputs": [
        {
          "name": "candidate",
          "type": "bytes32"
        },
        {
          "name": "votesInTokens",
          "type": "uint256"
        }
      ],
      "name": "vote",
      "outputs": [],
      "payable": false,
      "stateMutability": "nonpayable",
      "type": "function"
    },
    {
      "constant": true,
      "inputs": [
        {
          "name": "candidate",
          "type": "bytes32"
        }
      ],
      "name": "indexOfCandidate",
      "outputs": [
        {
          "name": "",
          "type": "uint256"
        }
      ],
      "payable": false,
      "stateMutability": "view",
      "type": "function"
    },
    {
      "constant": true,
      "inputs": [],
      "name": "getTokensInfo",
      "outputs": [
        {
          "name": "",
          "type": "uint256"
        },
        {
          "name": "",
          "type": "uint256"
        },
        {
          "name": "",
          "type": "uint256"
        }
      ],
      "payable": false,
      "stateMutability": "view",
      "type": "function"
    },
    {
      "constant": false,
      "inputs": [],
      "name": "buy",
      "outputs": [],
      "payable": true,
      "stateMutability": "payable",
      "type": "function"
    },
    {
      "constant": true,
      "inputs": [
        {
          "name": "user",
          "type": "address"
        }
      ],
      "name": "voterDetails",
      "outputs": [
        {
          "name": "",
          "type": "uint256"
        },
        {
          "name": "",
          "type": "bytes32"
        },
        {
          "name": "",
          "type": "bool"
        },
        {
          "name": "",
          "type": "address"
        }
      ],
      "payable": false,
      "stateMutability": "view",
      "type": "function"
    },
    {
      "constant": true,
      "inputs": [],
      "name": "tokensSold",
      "outputs": [
        {
          "name": "",
          "type": "uint256"
        }
      ],
      "payable": false,
      "stateMutability": "view",
      "type": "function"
    },
    {
      "constant": true,
      "inputs": [],
      "name": "balanceTokens",
      "outputs": [
        {
          "name": "",
          "type": "uint256"
        }
      ],
      "payable": false,
      "stateMutability": "view",
      "type": "function"
    },
    {
      "constant": false,
      "inputs": [
        {
          "name": "account",
          "type": "address"
        }
      ],
      "name": "transferTo",
      "outputs": [],
      "payable": false,
      "stateMutability": "nonpayable",
      "type": "function"
    },
    {
      "constant": true,
      "inputs": [],
      "name": "allCandidates",
      "outputs": [
        {
          "name": "",
          "type": "bytes32[]"
        }
      ],
      "payable": false,
      "stateMutability": "view",
      "type": "function"
    },
    {
      "constant": true,
      "inputs": [],
      "name": "getTokens",
      "outputs": [
        {
          "name": "",
          "type": "uint256"
        }
      ],
      "payable": false,
      "stateMutability": "view",
      "type": "function"
    },
    {
      "constant": true,
      "inputs": [],
      "name": "getTokenPrice",
      "outputs": [
        {
          "name": "",
          "type": "uint256"
        }
      ],
      "payable": false,
      "stateMutability": "view",
      "type": "function"
    },
    {
      "constant": true,
      "inputs": [],
      "name": "winningProposal",
      "outputs": [
        {
          "name": "",
          "type": "bytes32"
        }
      ],
      "payable": false,
      "stateMutability": "view",
      "type": "function"
    }
  ],
  "bytecode": "0x608060405234801561001057600080fd5b506040516112cb3803806112cb83398101806040528101908080519060200190929190805190602001909291908051820192919050505060008090505b81518110156100e457600060016000848481518110151561006a57fe5b9060200190602002015160001916600019168152602001908152602001600020819055506002828281518110151561009e57fe5b906020019060200201519080600181540180825580915050906001820390600052602060002001600090919290919091509060001916905550808060010191505061004d565b836003819055508360048190555082600581905550505050506111bf8061010c6000396000f300608060405260043610610107576000357c0100000000000000000000000000000000000000000000000000000000900463ffffffff168063026e402b1461010c5780631a0478d5146101595780632a63b6351461019e5780632f265cf7146101d7578063316642ae1461021c5780634b94f50e14610265578063518ab2a8146102905780635938750d146102bb578063609ff1bd1461035f5780637e1c0c09146103925780637ff9b596146103bd57806381c40715146103e85780639ef1204c14610454578063a03fa7e31461048f578063a3ec138d146104d2578063a6f2ae3a146105a9578063aa6ca808146105b3578063e4494a0f146105de578063ecd098b014610609575b600080fd5b34801561011857600080fd5b50610157600480360381019080803573ffffffffffffffffffffffffffffffffffffffff1690602001909291908035906020019092919050505061064e565b005b34801561016557600080fd5b5061018860048036038101908080356000191690602001909291905050506109bd565b6040518082815260200191505060405180910390f35b3480156101aa57600080fd5b506101b36109d5565b60405180848152602001838152602001828152602001935050505060405180910390f35b3480156101e357600080fd5b5061020660048036038101908080356000191690602001909291905050506109ee565b6040518082815260200191505060405180910390f35b34801561022857600080fd5b5061024760048036038101908080359060200190929190505050610a13565b60405180826000191660001916815260200191505060405180910390f35b34801561027157600080fd5b5061027a610a36565b6040518082815260200191505060405180910390f35b34801561029c57600080fd5b506102a5610a40565b6040518082815260200191505060405180910390f35b3480156102c757600080fd5b506102fc600480360381019080803573ffffffffffffffffffffffffffffffffffffffff169060200190929190505050610a4e565b604051808581526020018460001916600019168152602001831515151581526020018273ffffffffffffffffffffffffffffffffffffffff1673ffffffffffffffffffffffffffffffffffffffff16815260200194505050505060405180910390f35b34801561036b57600080fd5b50610374610b98565b60405180826000191660001916815260200191505060405180910390f35b34801561039e57600080fd5b506103a7610cac565b6040518082815260200191505060405180910390f35b3480156103c957600080fd5b506103d2610cb2565b6040518082815260200191505060405180910390f35b3480156103f457600080fd5b506103fd610cb8565b6040518080602001828103825283818151815260200191508051906020019060200280838360005b83811015610440578082015181840152602081019050610425565b505050509050019250505060405180910390f35b34801561046057600080fd5b5061048d600480360381019080803560001916906020019092919080359060200190929190505050610d14565b005b34801561049b57600080fd5b506104d0600480360381019080803573ffffffffffffffffffffffffffffffffffffffff169060200190929190505050610f19565b005b3480156104de57600080fd5b50610513600480360381019080803573ffffffffffffffffffffffffffffffffffffffff169060200190929190505050610f7a565b604051808673ffffffffffffffffffffffffffffffffffffffff1673ffffffffffffffffffffffffffffffffffffffff1681526020018581526020018415151515815260200183600019166000191681526020018273ffffffffffffffffffffffffffffffffffffffff1673ffffffffffffffffffffffffffffffffffffffff1681526020019550505050505060405180910390f35b6105b1610ffd565b005b3480156105bf57600080fd5b506105c8611102565b6040518082815260200191505060405180910390f35b3480156105ea57600080fd5b506105f361110c565b6040518082815260200191505060405180910390f35b34801561061557600080fd5b506106386004803603810190808035600019169060200190929190505050611116565b6040518082815260200191505060405180910390f35b6000803373ffffffffffffffffffffffffffffffffffffffff1673ffffffffffffffffffffffffffffffffffffffff16815260200190815260200160002060020160009054906101000a900460ff161515156106a957600080fd5b3373ffffffffffffffffffffffffffffffffffffffff168273ffffffffffffffffffffffffffffffffffffffff16141580156107725750600073ffffffffffffffffffffffffffffffffffffffff166000808473ffffffffffffffffffffffffffffffffffffffff1673ffffffffffffffffffffffffffffffffffffffff16815260200190815260200160002060040160009054906101000a900473ffffffffffffffffffffffffffffffffffffffff1673ffffffffffffffffffffffffffffffffffffffff16145b151561077d57600080fd5b816000803373ffffffffffffffffffffffffffffffffffffffff1673ffffffffffffffffffffffffffffffffffffffff16815260200190815260200160002060040160006101000a81548173ffffffffffffffffffffffffffffffffffffffff021916908373ffffffffffffffffffffffffffffffffffffffff160217905550806000803373ffffffffffffffffffffffffffffffffffffffff1673ffffffffffffffffffffffffffffffffffffffff1681526020019081526020016000206001016000828254039250508190555060016000803373ffffffffffffffffffffffffffffffffffffffff1673ffffffffffffffffffffffffffffffffffffffff16815260200190815260200160002060020160006101000a81548160ff0219169083151502179055506000808373ffffffffffffffffffffffffffffffffffffffff1673ffffffffffffffffffffffffffffffffffffffff16815260200190815260200160002060020160009054906101000a900460ff16156109695780600160008060008673ffffffffffffffffffffffffffffffffffffffff1673ffffffffffffffffffffffffffffffffffffffff1681526020019081526020016000206003015460001916600019168152602001908152602001600020600082825401925050819055506109b9565b806000808473ffffffffffffffffffffffffffffffffffffffff1673ffffffffffffffffffffffffffffffffffffffff168152602001908152602001600020600101600082825401925050819055505b5050565b60016020528060005260406000206000915090505481565b6000806000600354600454600554925092509250909192565b6000600160008360001916600019168152602001908152602001600020549050919050565b600281815481101515610a2257fe5b906000526020600020016000915090505481565b6000600554905090565b600060045460035403905090565b6000806000806000808673ffffffffffffffffffffffffffffffffffffffff1673ffffffffffffffffffffffffffffffffffffffff168152602001908152602001600020600101546000808773ffffffffffffffffffffffffffffffffffffffff1673ffffffffffffffffffffffffffffffffffffffff168152602001908152602001600020600301546000808873ffffffffffffffffffffffffffffffffffffffff1673ffffffffffffffffffffffffffffffffffffffff16815260200190815260200160002060020160009054906101000a900460ff166000808973ffffffffffffffffffffffffffffffffffffffff1673ffffffffffffffffffffffffffffffffffffffff16815260200190815260200160002060040160009054906101000a900473ffffffffffffffffffffffffffffffffffffffff1693509350935093509193509193565b6000806000807fffffffffffffffffffffffffffffffffffffffffffffffffffffffffffffffff925060009150600090505b600280549050811015610c5b578160016000600284815481101515610beb57fe5b906000526020600020015460001916600019168152602001908152602001600020541115610c4e5760016000600283815481101515610c2657fe5b9060005260206000200154600019166000191681526020019081526020016000205491508092505b8080600101915050610bca565b7fffffffffffffffffffffffffffffffffffffffffffffffffffffffffffffffff8314151515610c8a57600080fd5b600283815481101515610c9957fe5b9060005260206000200154935050505090565b60035481565b60055481565b60606002805480602002602001604051908101604052809291908181526020018280548015610d0a57602002820191906000526020600020905b81546000191681526020019060010190808311610cf2575b5050505050905090565b6000610d1f83611116565b90507fffffffffffffffffffffffffffffffffffffffffffffffffffffffffffffffff8114158015610d925750816000803373ffffffffffffffffffffffffffffffffffffffff1673ffffffffffffffffffffffffffffffffffffffff1681526020019081526020016000206001015410155b1515610d9d57600080fd5b6000803373ffffffffffffffffffffffffffffffffffffffff1673ffffffffffffffffffffffffffffffffffffffff16815260200190815260200160002060020160009054906101000a900460ff16151515610df857600080fd5b8160016000856000191660001916815260200190815260200160002060008282540192505081905550816000803373ffffffffffffffffffffffffffffffffffffffff1673ffffffffffffffffffffffffffffffffffffffff16815260200190815260200160002060010160008282540392505081905550826000803373ffffffffffffffffffffffffffffffffffffffff1673ffffffffffffffffffffffffffffffffffffffff168152602001908152602001600020600301816000191690555060016000803373ffffffffffffffffffffffffffffffffffffffff1673ffffffffffffffffffffffffffffffffffffffff16815260200190815260200160002060020160006101000a81548160ff021916908315150217905550505050565b8073ffffffffffffffffffffffffffffffffffffffff166108fc3073ffffffffffffffffffffffffffffffffffffffff16319081150290604051600060405180830381858888f19350505050158015610f76573d6000803e3d6000fd5b5050565b60006020528060005260406000206000915090508060000160009054906101000a900473ffffffffffffffffffffffffffffffffffffffff16908060010154908060020160009054906101000a900460ff16908060030154908060040160009054906101000a900473ffffffffffffffffffffffffffffffffffffffff16905085565b60006005543481151561100c57fe5b049050600454811115151561102057600080fd5b336000803373ffffffffffffffffffffffffffffffffffffffff1673ffffffffffffffffffffffffffffffffffffffff16815260200190815260200160002060000160006101000a81548173ffffffffffffffffffffffffffffffffffffffff021916908373ffffffffffffffffffffffffffffffffffffffff160217905550806000803373ffffffffffffffffffffffffffffffffffffffff1673ffffffffffffffffffffffffffffffffffffffff168152602001908152602001600020600101600082825401925050819055508060046000828254039250508190555050565b6000600354905090565b6000600454905090565b600080600090505b60028054905081101561116957826000191660028281548110151561113f57fe5b906000526020600020015460001916141561115c5780915061118d565b808060010191505061111e565b7fffffffffffffffffffffffffffffffffffffffffffffffffffffffffffffffff91505b509190505600a165627a7a723058208e4435854c524b5857a0a5d2ac61a577c07f919b716dc46f21c2e005333d64610029",
  "source": "pragma solidity ^0.4.22; // We have to specify what version of the compiler this code will use.\n\ncontract Voting {\n\n  /* Voter Information */\n  struct Voter {\n    address voterAddress; // the address of the voter\n    uint tokens;          // the total number of tokens this voter owns.\n    bool voted;           // bool to indicate that voter has casted the vote.\n    bytes32 vote;         // indicate to which candidate he casted the vote.\n    address delegate;\n  } mapping(address => Voter) public voters;\n  \n\n  /* mapping is assiciative array or hash.\n  The key of the mapping is the candidates name stored as type bytes32 and value \n  is the type unsigned integer which is used to storethe vote count.\n  */\n  mapping(bytes32 => uint) public candidates;\n  bytes32[] public candidatesIndex;\n\n  uint public totalTokens;    // total no. of available tokens for this election.\n  uint public balanceTokens;  // total no. of tokens still available for purchase.\n  uint public tokenPrice;     // price per token.\n\n\n  /* When the contract is deployed on the blockchain, we'll initialize the total number\n  of tokens for sale, cost per token and all candidates\n  */\n\n  constructor(uint tokens, uint _tokenPrice, bytes32[] _candidates) public {\n    for(uint i = 0; i < _candidates.length; i++) {\n      candidates[_candidates[i]] = uint(0);\n      candidatesIndex.push(_candidates[i]);\n    }\n\n    totalTokens = tokens;\n    balanceTokens = tokens;\n    tokenPrice = _tokenPrice;\n  }\n\n  function totalVotesFor(bytes32 candidate) view public returns(uint) {\n    return candidates[candidate];\n  }\n\n  function delegate(address to, uint tokens) public {\n    \n    require(!voters[msg.sender].voted);\n\n    // Self-delegation is not allowed.\n    require(to != msg.sender && voters[to].delegate == address(0));\n\n    // Forward the delegation as long as\n    // Since `sender` is a reference, this modifies `voters[msg.sender].voted`\n\n    voters[msg.sender].delegate = to;\n\n    voters[msg.sender].tokens -= tokens;\n\n    voters[msg.sender].voted = true;\n\n    if (voters[to].voted) {\n        // If the delegate already voted,\n        // directly add to the number of votes\n        candidates[voters[to].vote] += tokens;\n\n    } else {\n        // If the delegate did not vote yet, transfer tokens to 'to' account.\n        voters[to].tokens += tokens;\n    }\n  }\n\n  /* instead of just taking the candidate name as an argument, we also require the no. \n  of tokens this voter wants to vote for the candidate.\n  */\n  function vote(bytes32 candidate, uint votesInTokens) public {\n    uint index = indexOfCandidate(candidate);\n\n    // Make sure this voter has enough tokens to cast the vote.\n    require(index != uint(-1) && voters[msg.sender].tokens >= votesInTokens);\n\n    // Make sure this voter has not yet voted.\n    require(!voters[msg.sender].voted);\n\n    candidates[candidate] += votesInTokens;\n\n    // store how many tokens were used for this candidate\n    voters[msg.sender].tokens -= votesInTokens;\n\n    voters[msg.sender].vote = candidate;\n    voters[msg.sender].voted = true;\n\n  }\n\n  function indexOfCandidate(bytes32 candidate) view public returns (uint) {\n    for(uint i = 0; i < candidatesIndex.length; i++) {\n      if (candidatesIndex[i] == candidate) {\n        return i;\n      }\n    }\n    return uint(-1);\n  }\n\n  event TokensInfo(\n    uint total,\n    uint available,\n    uint price\n  );\n\n  function getTokensInfo() view public returns(uint, uint, uint) {\n    return (totalTokens, balanceTokens, tokenPrice);\n  }\n\n  function buy() payable public {\n    uint tokensToBuy = msg.value / tokenPrice;\n\n    require(tokensToBuy <= balanceTokens);\n\n    voters[msg.sender].voterAddress = msg.sender;\n    voters[msg.sender].tokens += tokensToBuy;\n\n    balanceTokens -= tokensToBuy;\n  }\n\n  function voterDetails(address user) view public returns(uint, bytes32, bool, address) {\n    return (voters[user].tokens,\n      voters[user].vote,\n      voters[user].voted,\n      voters[user].delegate);\n  }\n\n  /* All the ether sent by voters who purchased. the tokens is in this contracts's account.\n  This method will. be used to transfer. out all those ethers in to another account.\n  ****. the way this function is written currently, anyone can call this method and transfer \n  the balance in to their account. In reality, you should add check to make sure only the owner\n  of this contract. can cash out.\n  */\n\n  function tokensSold() view public returns (uint) {\n    return totalTokens - balanceTokens;\n  }\n\n  function balanceTokens() view public returns (uint) {\n    return balanceTokens;\n  }\n\n  function transferTo(address account) public {\n    account.transfer(address(this).balance);\n  }\n\n  function allCandidates() view public returns(bytes32[]) {\n    return candidatesIndex;\n  }\n\n  function getTokens() view public returns (uint) {\n    return totalTokens;\n  }\n\n  function getTokenPrice() view public returns (uint) {\n    return tokenPrice;\n  }\n\n  function winningProposal() public view returns (bytes32) {\n    int index = -1;\n    uint count = 0;\n\n    for(uint i = 0; i < candidatesIndex.length; i++) {\n      if(candidates[candidatesIndex[i]] > count) {\n        count = candidates[candidatesIndex[i]];\n        index = int(i);\n      }\n    }\n\n    require(index != -1);\n\n    return candidatesIndex[uint(index)];\n  }\n}\n",
  "sourcePath": "/Users/khizaralimanzoor/Work/Projects/octane-sunu/contracts/Voting.sol",
  "compiler": {
    "name": "solc",
    "version": "0.4.23+commit.124ca40d.Emscripten.clang"
  },
  "schemaVersion": "2.0.0",
  "updatedAt": "2018-05-22T00:09:37.101Z"
}